{
  "contractName": "TransferContract",
  "abi": [
    {
      "inputs": [
        {
          "internalType": "address payable",
          "name": "to",
          "type": "address"
        },
        {
          "internalType": "uint256",
          "name": "amount",
          "type": "uint256"
        }
      ],
      "name": "transferTo",
      "outputs": [],
      "stateMutability": "payable",
      "type": "function",
      "payable": true
    }
  ],
  "bytecode": "0x608060405234801561001057600080fd5b506102e7806100206000396000f3fe60806040526004361061001e5760003560e01c80632ccb1b3014610023575b600080fd5b61003d6004803603810190610038919061013a565b61003f565b005b60008111610082576040517f08c379a0000000000000000000000000000000000000000000000000000000008152600401610079906101f6565b60405180910390fd5b803410156100c5576040517f08c379a00000000000000000000000000000000000000000000000000000000081526004016100bc90610216565b60405180910390fd5b8173ffffffffffffffffffffffffffffffffffffffff166108fc829081150290604051600060405180830381858888f1935050505015801561010b573d6000803e3d6000fd5b505050565b60008135905061011f81610283565b92915050565b6000813590506101348161029a565b92915050565b6000806040838503121561014d57600080fd5b600061015b85828601610110565b925050602061016c85828601610125565b9150509250929050565b6000610183601d83610236565b91507f416d6f756e74206d7573742062652067726561746572207468616e20300000006000830152602082019050919050565b60006101c3601283610236565b91507f496e73756666696369656e742066756e647300000000000000000000000000006000830152602082019050919050565b6000602082019050818103600083015261020f81610176565b9050919050565b6000602082019050818103600083015261022f816101b6565b9050919050565b600082825260208201905092915050565b600061025282610259565b9050919050565b600073ffffffffffffffffffffffffffffffffffffffff82169050919050565b6000819050919050565b61028c81610247565b811461029757600080fd5b50565b6102a381610279565b81146102ae57600080fd5b5056fea2646970667358221220b056bdc290655f4a2e6c5b1c46e7fd4793683a65dcb39810f4a47ebb79c3e25364736f6c63430008000033",
  "immutableReferences": {},
  "source": "// SPDX-License-Identifier: MIT\r\npragma solidity >=0.4.22 <0.9.0;\r\n\r\ncontract TransferContract {\r\n    function transferTo(address payable to, uint256 amount) external payable {\r\n        require(amount > 0, \"Amount must be greater than 0\");\r\n        require(msg.value >= amount, \"Insufficient funds\");\r\n\r\n        to.transfer(amount);\r\n    }\r\n}\r\n",
  "sourcePath": "C:\\Users\\Vicma\\OneDrive\\Escritorio\\2app\\contracts\\TransferContract.sol",
  "compiler": {
    "name": "solc",
    "version": "0.8.0+commit.c7dfd78e.Emscripten.clang"
  },
  "schemaVersion": "3.4.16",
  "updatedAt": "2023-12-09T05:24:43.230Z",
  "networkType": "ethereum",
  "devdoc": {
    "kind": "dev",
    "methods": {},
    "version": 1
  },
  "userdoc": {
    "kind": "user",
    "methods": {},
    "version": 1
  }
}