{
  "contractName": "TransferContract",
  "abi": [
    {
      "inputs": [],
      "stateMutability": "nonpayable",
      "type": "constructor"
    },
    {
      "anonymous": false,
      "inputs": [
        {
          "indexed": false,
          "internalType": "uint256",
          "name": "amount",
          "type": "uint256"
        }
      ],
      "name": "LogAmount",
      "type": "event"
    },
    {
      "anonymous": false,
      "inputs": [
        {
          "indexed": false,
          "internalType": "uint256",
          "name": "msgValue",
          "type": "uint256"
        }
      ],
      "name": "LogMsgValue",
      "type": "event"
    },
    {
      "anonymous": false,
      "inputs": [
        {
          "indexed": true,
          "internalType": "address",
          "name": "to",
          "type": "address"
        },
        {
          "indexed": false,
          "internalType": "uint256",
          "name": "amount",
          "type": "uint256"
        }
      ],
      "name": "TransferCompleted",
      "type": "event"
    },
    {
      "inputs": [],
      "name": "owner",
      "outputs": [
        {
          "internalType": "address",
          "name": "",
          "type": "address"
        }
      ],
      "stateMutability": "view",
      "type": "function",
      "constant": true
    },
    {
      "inputs": [
        {
          "internalType": "address payable",
          "name": "to",
          "type": "address"
        },
        {
          "internalType": "uint256",
          "name": "amount",
          "type": "uint256"
        }
      ],
      "name": "transferTo",
      "outputs": [],
      "stateMutability": "payable",
      "type": "function",
      "payable": true
    }
  ],
  "bytecode": "0x608060405234801561001057600080fd5b50336000806101000a81548173ffffffffffffffffffffffffffffffffffffffff021916908373ffffffffffffffffffffffffffffffffffffffff160217905550610463806100606000396000f3fe6080604052600436106100295760003560e01c80632ccb1b301461002e5780638da5cb5b1461004a575b600080fd5b61004860048036038101906100439190610250565b610075565b005b34801561005657600080fd5b5061005f610202565b60405161006c919061032a565b60405180910390f35b600081116100b8576040517f08c379a00000000000000000000000000000000000000000000000000000000081526004016100af90610345565b60405180910390fd5b7f765cb3911eede83bb353ee82c804e68dcb13676d373381223d781f8765448a13346040516100e79190610385565b60405180910390a17f2b6d16daba1ad641729e00d9e8a460dbd835d4219388907a9a585ab8ac2532cb8160405161011e9190610385565b60405180910390a180341015610169576040517f08c379a000000000000000000000000000000000000000000000000000000000815260040161016090610365565b60405180910390fd5b8173ffffffffffffffffffffffffffffffffffffffff166108fc829081150290604051600060405180830381858888f193505050501580156101af573d6000803e3d6000fd5b508173ffffffffffffffffffffffffffffffffffffffff167fe4bb88acda5194aa84e6feedbb6438ffd447bdee1e1ad8dda3c32fcff9a68f08826040516101f69190610385565b60405180910390a25050565b60008054906101000a900473ffffffffffffffffffffffffffffffffffffffff1681565b600081359050610235816103ff565b92915050565b60008135905061024a81610416565b92915050565b6000806040838503121561026357600080fd5b600061027185828601610226565b92505060206102828582860161023b565b9150509250929050565b610295816103b1565b82525050565b60006102a8601d836103a0565b91507f416d6f756e74206d7573742062652067726561746572207468616e20300000006000830152602082019050919050565b60006102e86012836103a0565b91507f496e73756666696369656e742046756e647300000000000000000000000000006000830152602082019050919050565b610324816103f5565b82525050565b600060208201905061033f600083018461028c565b92915050565b6000602082019050818103600083015261035e8161029b565b9050919050565b6000602082019050818103600083015261037e816102db565b9050919050565b600060208201905061039a600083018461031b565b92915050565b600082825260208201905092915050565b60006103bc826103d5565b9050919050565b60006103ce826103d5565b9050919050565b600073ffffffffffffffffffffffffffffffffffffffff82169050919050565b6000819050919050565b610408816103c3565b811461041357600080fd5b50565b61041f816103f5565b811461042a57600080fd5b5056fea264697066735822122082ac1b71ea4d56f865662dfe5bc011095f09afb36d73723eeb77d44e921d607f64736f6c63430008000033",
  "immutableReferences": {},
  "source": "// SPDX-License-Identifier: MIT\npragma solidity ^0.8.0;\n\ncontract TransferContract {\n    address public owner;\n\n    event TransferCompleted(address indexed to, uint256 amount);\n    event LogMsgValue(uint256 msgValue);\n    event LogAmount(uint256 amount); // Nuevo evento para registrar la cantidad\n\n    constructor() {\n        owner = msg.sender;\n    }\n\n    function transferTo(address payable to, uint256 amount) external payable {\n        require(amount > 0, \"Amount must be greater than 0\");\n\n        // Log msg.value for debugging\n        emit LogMsgValue(msg.value);\n\n        // Log amount for debugging\n        emit LogAmount(amount); // Emite el evento con la cantidad\n\n        require(msg.value >= amount, \"Insufficient Funds\");\n\n        to.transfer(amount);\n\n        emit TransferCompleted(to, amount);\n    }\n}",
  "sourcePath": "C:\\Users\\hogwa\\OneDrive\\Escritorio\\dapp_transfer_ganache\\contracts\\TransferContract.sol",
  "compiler": {
    "name": "solc",
    "version": "0.8.0+commit.c7dfd78e.Emscripten.clang"
  },
  "schemaVersion": "3.4.16",
  "updatedAt": "2023-12-13T20:13:35.718Z",
  "networkType": "ethereum",
  "devdoc": {
    "kind": "dev",
    "methods": {},
    "version": 1
  },
  "userdoc": {
    "kind": "user",
    "methods": {},
    "version": 1
  }
}